{
  "_format": "hh-sol-artifact-1",
  "contractName": "EthZNFT",
  "sourceName": "contracts/EthZNFT.sol",
  "abi": [
    {
      "inputs": [
        {
          "internalType": "string",
          "name": "tokenName",
          "type": "string"
        },
        {
          "internalType": "string",
          "name": "symbol",
          "type": "string"
        },
        {
          "internalType": "address",
          "name": "_paymentAddress",
          "type": "address"
        }
      ],
      "stateMutability": "nonpayable",
      "type": "constructor"
    },
    {
      "anonymous": false,
      "inputs": [
        {
          "indexed": true,
          "internalType": "address",
          "name": "owner",
          "type": "address"
        },
        {
          "indexed": true,
          "internalType": "address",
          "name": "approved",
          "type": "address"
        },
        {
          "indexed": true,
          "internalType": "uint256",
          "name": "tokenId",
          "type": "uint256"
        }
      ],
      "name": "Approval",
      "type": "event"
    },
    {
      "anonymous": false,
      "inputs": [
        {
          "indexed": true,
          "internalType": "address",
          "name": "owner",
          "type": "address"
        },
        {
          "indexed": true,
          "internalType": "address",
          "name": "operator",
          "type": "address"
        },
        {
          "indexed": false,
          "internalType": "bool",
          "name": "approved",
          "type": "bool"
        }
      ],
      "name": "ApprovalForAll",
      "type": "event"
    },
    {
      "anonymous": false,
      "inputs": [
        {
          "indexed": true,
          "internalType": "address",
          "name": "previousOwner",
          "type": "address"
        },
        {
          "indexed": true,
          "internalType": "address",
          "name": "newOwner",
          "type": "address"
        }
      ],
      "name": "OwnershipTransferred",
      "type": "event"
    },
    {
      "anonymous": false,
      "inputs": [
        {
          "indexed": true,
          "internalType": "address",
          "name": "from",
          "type": "address"
        },
        {
          "indexed": true,
          "internalType": "address",
          "name": "to",
          "type": "address"
        },
        {
          "indexed": true,
          "internalType": "uint256",
          "name": "tokenId",
          "type": "uint256"
        }
      ],
      "name": "Transfer",
      "type": "event"
    },
    {
      "inputs": [
        {
          "internalType": "address",
          "name": "to",
          "type": "address"
        },
        {
          "internalType": "uint256",
          "name": "tokenId",
          "type": "uint256"
        }
      ],
      "name": "approve",
      "outputs": [],
      "stateMutability": "nonpayable",
      "type": "function"
    },
    {
      "inputs": [
        {
          "internalType": "address",
          "name": "owner",
          "type": "address"
        }
      ],
      "name": "balanceOf",
      "outputs": [
        {
          "internalType": "uint256",
          "name": "",
          "type": "uint256"
        }
      ],
      "stateMutability": "view",
      "type": "function"
    },
    {
      "inputs": [],
      "name": "baseURI",
      "outputs": [
        {
          "internalType": "string",
          "name": "",
          "type": "string"
        }
      ],
      "stateMutability": "view",
      "type": "function"
    },
    {
      "inputs": [
        {
          "internalType": "uint256",
          "name": "tokenId",
          "type": "uint256"
        }
      ],
      "name": "getApproved",
      "outputs": [
        {
          "internalType": "address",
          "name": "",
          "type": "address"
        }
      ],
      "stateMutability": "view",
      "type": "function"
    },
    {
      "inputs": [
        {
          "internalType": "address",
          "name": "owner",
          "type": "address"
        },
        {
          "internalType": "address",
          "name": "operator",
          "type": "address"
        }
      ],
      "name": "isApprovedForAll",
      "outputs": [
        {
          "internalType": "bool",
          "name": "",
          "type": "bool"
        }
      ],
      "stateMutability": "view",
      "type": "function"
    },
    {
      "inputs": [
        {
          "internalType": "address",
          "name": "owner",
          "type": "address"
        },
        {
          "internalType": "string",
          "name": "metadataURI",
          "type": "string"
        }
      ],
      "name": "mintToken",
      "outputs": [
        {
          "internalType": "uint256",
          "name": "",
          "type": "uint256"
        }
      ],
      "stateMutability": "nonpayable",
      "type": "function"
    },
    {
      "inputs": [],
      "name": "name",
      "outputs": [
        {
          "internalType": "string",
          "name": "",
          "type": "string"
        }
      ],
      "stateMutability": "view",
      "type": "function"
    },
    {
      "inputs": [],
      "name": "owner",
      "outputs": [
        {
          "internalType": "address",
          "name": "",
          "type": "address"
        }
      ],
      "stateMutability": "view",
      "type": "function"
    },
    {
      "inputs": [
        {
          "internalType": "uint256",
          "name": "tokenId",
          "type": "uint256"
        }
      ],
      "name": "ownerOf",
      "outputs": [
        {
          "internalType": "address",
          "name": "",
          "type": "address"
        }
      ],
      "stateMutability": "view",
      "type": "function"
    },
    {
      "inputs": [],
      "name": "payMintingFee",
      "outputs": [],
      "stateMutability": "payable",
      "type": "function"
    },
    {
      "inputs": [
        {
          "internalType": "address",
          "name": "dest",
          "type": "address"
        }
      ],
      "name": "payments",
      "outputs": [
        {
          "internalType": "uint256",
          "name": "",
          "type": "uint256"
        }
      ],
      "stateMutability": "view",
      "type": "function"
    },
    {
      "inputs": [],
      "name": "renounceOwnership",
      "outputs": [],
      "stateMutability": "nonpayable",
      "type": "function"
    },
    {
      "inputs": [
        {
          "internalType": "address",
          "name": "from",
          "type": "address"
        },
        {
          "internalType": "address",
          "name": "to",
          "type": "address"
        },
        {
          "internalType": "uint256",
          "name": "tokenId",
          "type": "uint256"
        }
      ],
      "name": "safeTransferFrom",
      "outputs": [],
      "stateMutability": "nonpayable",
      "type": "function"
    },
    {
      "inputs": [
        {
          "internalType": "address",
          "name": "from",
          "type": "address"
        },
        {
          "internalType": "address",
          "name": "to",
          "type": "address"
        },
        {
          "internalType": "uint256",
          "name": "tokenId",
          "type": "uint256"
        },
        {
          "internalType": "bytes",
          "name": "_data",
          "type": "bytes"
        }
      ],
      "name": "safeTransferFrom",
      "outputs": [],
      "stateMutability": "nonpayable",
      "type": "function"
    },
    {
      "inputs": [
        {
          "internalType": "address",
          "name": "operator",
          "type": "address"
        },
        {
          "internalType": "bool",
          "name": "approved",
          "type": "bool"
        }
      ],
      "name": "setApprovalForAll",
      "outputs": [],
      "stateMutability": "nonpayable",
      "type": "function"
    },
    {
      "inputs": [
        {
          "internalType": "uint256",
          "name": "_mintingFee",
          "type": "uint256"
        }
      ],
      "name": "setMintingFee",
      "outputs": [],
      "stateMutability": "nonpayable",
      "type": "function"
    },
    {
      "inputs": [
        {
          "internalType": "address",
          "name": "_paymentAddress",
          "type": "address"
        }
      ],
      "name": "setPaymentAddress",
      "outputs": [],
      "stateMutability": "nonpayable",
      "type": "function"
    },
    {
      "inputs": [
        {
          "internalType": "bytes4",
          "name": "interfaceId",
          "type": "bytes4"
        }
      ],
      "name": "supportsInterface",
      "outputs": [
        {
          "internalType": "bool",
          "name": "",
          "type": "bool"
        }
      ],
      "stateMutability": "view",
      "type": "function"
    },
    {
      "inputs": [],
      "name": "symbol",
      "outputs": [
        {
          "internalType": "string",
          "name": "",
          "type": "string"
        }
      ],
      "stateMutability": "view",
      "type": "function"
    },
    {
      "inputs": [
        {
          "internalType": "uint256",
          "name": "index",
          "type": "uint256"
        }
      ],
      "name": "tokenByIndex",
      "outputs": [
        {
          "internalType": "uint256",
          "name": "",
          "type": "uint256"
        }
      ],
      "stateMutability": "view",
      "type": "function"
    },
    {
      "inputs": [
        {
          "internalType": "address",
          "name": "owner",
          "type": "address"
        },
        {
          "internalType": "uint256",
          "name": "index",
          "type": "uint256"
        }
      ],
      "name": "tokenOfOwnerByIndex",
      "outputs": [
        {
          "internalType": "uint256",
          "name": "",
          "type": "uint256"
        }
      ],
      "stateMutability": "view",
      "type": "function"
    },
    {
      "inputs": [
        {
          "internalType": "uint256",
          "name": "tokenId",
          "type": "uint256"
        }
      ],
      "name": "tokenURI",
      "outputs": [
        {
          "internalType": "string",
          "name": "",
          "type": "string"
        }
      ],
      "stateMutability": "view",
      "type": "function"
    },
    {
      "inputs": [],
      "name": "totalSupply",
      "outputs": [
        {
          "internalType": "uint256",
          "name": "",
          "type": "uint256"
        }
      ],
      "stateMutability": "view",
      "type": "function"
    },
    {
      "inputs": [
        {
          "internalType": "address",
          "name": "from",
          "type": "address"
        },
        {
          "internalType": "address",
          "name": "to",
          "type": "address"
        },
        {
          "internalType": "uint256",
          "name": "tokenId",
          "type": "uint256"
        }
      ],
      "name": "transferFrom",
      "outputs": [],
      "stateMutability": "nonpayable",
      "type": "function"
    },
    {
      "inputs": [
        {
          "internalType": "address",
          "name": "newOwner",
          "type": "address"
        }
      ],
      "name": "transferOwnership",
      "outputs": [],
      "stateMutability": "nonpayable",
      "type": "function"
    },
    {
      "inputs": [],
      "name": "withdrawFee",
      "outputs": [],
      "stateMutability": "nonpayable",
      "type": "function"
    },
    {
      "inputs": [
        {
          "internalType": "address payable",
          "name": "payee",
          "type": "address"
        }
      ],
      "name": "withdrawPayments",
      "outputs": [],
      "stateMutability": "nonpayable",
      "type": "function"
    },
    {
      "inputs": [],
      "name": "withdrawRefund",
      "outputs": [],
      "stateMutability": "nonpayable",
      "type": "function"
    }
  ],
  "bytecode": "0x60806040523480156200001157600080fd5b506040516200544d3803806200544d833981810160405260608110156200003757600080fd5b81019080805160405193929190846401000000008211156200005857600080fd5b838201915060208201858111156200006f57600080fd5b82518660018202830111640100000000821117156200008d57600080fd5b8083526020830192505050908051906020019080838360005b83811015620000c3578082015181840152602081019050620000a6565b50505050905090810190601f168015620000f15780820380516001836020036101000a031916815260200191505b50604052602001805160405193929190846401000000008211156200011557600080fd5b838201915060208201858111156200012c57600080fd5b82518660018202830111640100000000821117156200014a57600080fd5b8083526020830192505050908051906020019080838360005b838110156200018057808201518184015260208101905062000163565b50505050905090810190601f168015620001ae5780820380516001836020036101000a031916815260200191505b50604052602001805190602001909291905050508282620001dc6301ffc9a760e01b6200043660201b60201c565b8160069080519060200190620001f492919062000725565b5080600790805190602001906200020d92919062000725565b50620002266380ac58cd60e01b6200043660201b60201c565b6200023e635b5e139f60e01b6200043660201b60201c565b6200025663780e9d6360e01b6200043660201b60201c565b50506040516200026690620007ac565b604051809103906000f08015801562000283573d6000803e3d6000fd5b50600a60006101000a81548173ffffffffffffffffffffffffffffffffffffffff021916908373ffffffffffffffffffffffffffffffffffffffff1602179055506000620002d66200053f60201b60201c565b905080600b60006101000a81548173ffffffffffffffffffffffffffffffffffffffff021916908373ffffffffffffffffffffffffffffffffffffffff1602179055508073ffffffffffffffffffffffffffffffffffffffff16600073ffffffffffffffffffffffffffffffffffffffff167f8be0079c531659141344cd1fd0a4f28419497f9722a3daafe3b4186f6b6457e060405160405180910390a350620003bb6040518060400160405280600781526020017f697066733a2f2f000000000000000000000000000000000000000000000000008152506200054760201b60201c565b620003ec604051806060016040528060248152602001620054296024913984836200056360201b620023fb1760201c565b80600f60006101000a81548173ffffffffffffffffffffffffffffffffffffffff021916908373ffffffffffffffffffffffffffffffffffffffff160217905550505050620007d9565b63ffffffff60e01b817bffffffffffffffffffffffffffffffffffffffffffffffffffffffff19161415620004d3576040517f08c379a000000000000000000000000000000000000000000000000000000000815260040180806020018281038252601c8152602001807f4552433136353a20696e76616c696420696e746572666163652069640000000081525060200191505060405180910390fd5b6001600080837bffffffffffffffffffffffffffffffffffffffffffffffffffffffff19167bffffffffffffffffffffffffffffffffffffffffffffffffffffffff1916815260200190815260200160002060006101000a81548160ff02191690831515021790555050565b600033905090565b80600990805190602001906200055f92919062000725565b5050565b620006f78383836040516024018080602001806020018473ffffffffffffffffffffffffffffffffffffffff168152602001838103835286818151815260200191508051906020019080838360005b83811015620005cf578082015181840152602081019050620005b2565b50505050905090810190601f168015620005fd5780820380516001836020036101000a031916815260200191505b50838103825285818151815260200191508051906020019080838360005b83811015620006385780820151818401526020810190506200061b565b50505050905090810190601f168015620006665780820380516001836020036101000a031916815260200191505b50955050505050506040516020818303038152906040527f95ed0195000000000000000000000000000000000000000000000000000000007bffffffffffffffffffffffffffffffffffffffffffffffffffffffff19166020820180517bffffffffffffffffffffffffffffffffffffffffffffffffffffffff8381831617835250505050620006fc60201b60201c565b505050565b60008151905060006a636f6e736f6c652e6c6f679050602083016000808483855afa5050505050565b828054600181600116156101000203166002900490600052602060002090601f016020900481019282601f106200076857805160ff191683800117855562000799565b8280016001018555821562000799579182015b82811115620007985782518255916020019190600101906200077b565b5b509050620007a89190620007ba565b5090565b610cbb806200476e83390190565b5b80821115620007d5576000816000905550600101620007bb565b5090565b613f8580620007e96000396000f3fe6080604052600436106101b75760003560e01c80636352211e116100ec578063b88d4fde1161008a578063e2982c2111610064578063e2982c2114610bba578063e941fa7814610c1f578063e985e9c514610c36578063f2fde38b14610cbd576101b7565b8063b88d4fde146109ea578063c87b56dd14610afc578063dc30f72614610bb0576101b7565b8063715018a6116100c6578063715018a6146108a55780638da5cb5b146108bc57806395d89b41146108fd578063a22cb4651461098d576101b7565b80636352211e1461074b5780636c0360eb146107b057806370a0823114610840576101b7565b806323b872dd116101595780633d02d0c9116101335780633d02d0c91461053457806342842e0e146106305780634f6ccce7146106ab5780635e1e1004146106fa576101b7565b806323b872dd146103f95780632f745c591461047457806331b3eb94146104e3576101b7565b8063095ea7b311610195578063095ea7b314610321578063110f88741461037c57806318160ddd14610393578063238a4709146103be576101b7565b806301ffc9a7146101bc57806306fdde031461022c578063081812fc146102bc575b600080fd5b3480156101c857600080fd5b50610214600480360360208110156101df57600080fd5b8101908080357bffffffffffffffffffffffffffffffffffffffffffffffffffffffff19169060200190929190505050610d0e565b60405180821515815260200191505060405180910390f35b34801561023857600080fd5b50610241610d75565b6040518080602001828103825283818151815260200191508051906020019080838360005b83811015610281578082015181840152602081019050610266565b50505050905090810190601f1680156102ae5780820380516001836020036101000a031916815260200191505b509250505060405180910390f35b3480156102c857600080fd5b506102f5600480360360208110156102df57600080fd5b8101908080359060200190929190505050610e17565b604051808273ffffffffffffffffffffffffffffffffffffffff16815260200191505060405180910390f35b34801561032d57600080fd5b5061037a6004803603604081101561034457600080fd5b81019080803573ffffffffffffffffffffffffffffffffffffffff16906020019092919080359060200190929190505050610eb2565b005b34801561038857600080fd5b50610391610ff6565b005b34801561039f57600080fd5b506103a86110f6565b6040518082815260200191505060405180910390f35b3480156103ca57600080fd5b506103f7600480360360208110156103e157600080fd5b8101908080359060200190929190505050611107565b005b34801561040557600080fd5b506104726004803603606081101561041c57600080fd5b81019080803573ffffffffffffffffffffffffffffffffffffffff169060200190929190803573ffffffffffffffffffffffffffffffffffffffff16906020019092919080359060200190929190505050611200565b005b34801561048057600080fd5b506104cd6004803603604081101561049757600080fd5b81019080803573ffffffffffffffffffffffffffffffffffffffff16906020019092919080359060200190929190505050611276565b6040518082815260200191505060405180910390f35b3480156104ef57600080fd5b506105326004803603602081101561050657600080fd5b81019080803573ffffffffffffffffffffffffffffffffffffffff1690602001909291905050506112d1565b005b34801561054057600080fd5b5061061a6004803603604081101561055757600080fd5b81019080803573ffffffffffffffffffffffffffffffffffffffff1690602001909291908035906020019064010000000081111561059457600080fd5b8201836020820111156105a657600080fd5b803590602001918460018302840111640100000000831117156105c857600080fd5b91908080601f016020809104026020016040519081016040528093929190818152602001838380828437600081840152601f19601f820116905080830192505050505050509192919290505050611377565b6040518082815260200191505060405180910390f35b34801561063c57600080fd5b506106a96004803603606081101561065357600080fd5b81019080803573ffffffffffffffffffffffffffffffffffffffff169060200190929190803573ffffffffffffffffffffffffffffffffffffffff169060200190929190803590602001909291905050506113af565b005b3480156106b757600080fd5b506106e4600480360360208110156106ce57600080fd5b81019080803590602001909291905050506113cf565b6040518082815260200191505060405180910390f35b34801561070657600080fd5b506107496004803603602081101561071d57600080fd5b81019080803573ffffffffffffffffffffffffffffffffffffffff1690602001909291905050506113f2565b005b34801561075757600080fd5b506107846004803603602081101561076e57600080fd5b8101908080359060200190929190505050611545565b604051808273ffffffffffffffffffffffffffffffffffffffff16815260200191505060405180910390f35b3480156107bc57600080fd5b506107c561157c565b6040518080602001828103825283818151815260200191508051906020019080838360005b838110156108055780820151818401526020810190506107ea565b50505050905090810190601f1680156108325780820380516001836020036101000a031916815260200191505b509250505060405180910390f35b34801561084c57600080fd5b5061088f6004803603602081101561086357600080fd5b81019080803573ffffffffffffffffffffffffffffffffffffffff16906020019092919050505061161e565b6040518082815260200191505060405180910390f35b3480156108b157600080fd5b506108ba6116f3565b005b3480156108c857600080fd5b506108d161187e565b604051808273ffffffffffffffffffffffffffffffffffffffff16815260200191505060405180910390f35b34801561090957600080fd5b506109126118a8565b6040518080602001828103825283818151815260200191508051906020019080838360005b83811015610952578082015181840152602081019050610937565b50505050905090810190601f16801561097f5780820380516001836020036101000a031916815260200191505b509250505060405180910390f35b34801561099957600080fd5b506109e8600480360360408110156109b057600080fd5b81019080803573ffffffffffffffffffffffffffffffffffffffff16906020019092919080351515906020019092919050505061194a565b005b3480156109f657600080fd5b50610afa60048036036080811015610a0d57600080fd5b81019080803573ffffffffffffffffffffffffffffffffffffffff169060200190929190803573ffffffffffffffffffffffffffffffffffffffff1690602001909291908035906020019092919080359060200190640100000000811115610a7457600080fd5b820183602082011115610a8657600080fd5b80359060200191846001830284011164010000000083111715610aa857600080fd5b91908080601f016020809104026020016040519081016040528093929190818152602001838380828437600081840152601f19601f820116905080830192505050505050509192919290505050611b00565b005b348015610b0857600080fd5b50610b3560048036036020811015610b1f57600080fd5b8101908080359060200190929190505050611b78565b6040518080602001828103825283818151815260200191508051906020019080838360005b83811015610b75578082015181840152602081019050610b5a565b50505050905090810190601f168015610ba25780820380516001836020036101000a031916815260200191505b509250505060405180910390f35b610bb8611e61565b005b348015610bc657600080fd5b50610c0960048036036020811015610bdd57600080fd5b81019080803573ffffffffffffffffffffffffffffffffffffffff169060200190929190505050611f88565b6040518082815260200191505060405180910390f35b348015610c2b57600080fd5b50610c34612055565b005b348015610c4257600080fd5b50610ca560048036036040811015610c5957600080fd5b81019080803573ffffffffffffffffffffffffffffffffffffffff169060200190929190803573ffffffffffffffffffffffffffffffffffffffff169060200190929190505050612157565b60405180821515815260200191505060405180910390f35b348015610cc957600080fd5b50610d0c60048036036020811015610ce057600080fd5b81019080803573ffffffffffffffffffffffffffffffffffffffff1690602001909291905050506121eb565b005b6000806000837bffffffffffffffffffffffffffffffffffffffffffffffffffffffff19167bffffffffffffffffffffffffffffffffffffffffffffffffffffffff1916815260200190815260200160002060009054906101000a900460ff169050919050565b606060068054600181600116156101000203166002900480601f016020809104026020016040519081016040528092919081815260200182805460018160011615610100020316600290048015610e0d5780601f10610de257610100808354040283529160200191610e0d565b820191906000526020600020905b815481529060010190602001808311610df057829003601f168201915b5050505050905090565b6000610e2282612586565b610e77576040517f08c379a000000000000000000000000000000000000000000000000000000000815260040180806020018281038252602c815260200180613e4e602c913960400191505060405180910390fd5b6004600083815260200190815260200160002060009054906101000a900473ffffffffffffffffffffffffffffffffffffffff169050919050565b6000610ebd82611545565b90508073ffffffffffffffffffffffffffffffffffffffff168373ffffffffffffffffffffffffffffffffffffffff161415610f44576040517f08c379a0000000000000000000000000000000000000000000000000000000008152600401808060200182810382526021815260200180613efe6021913960400191505060405180910390fd5b8073ffffffffffffffffffffffffffffffffffffffff16610f636125a3565b73ffffffffffffffffffffffffffffffffffffffff161480610f925750610f9181610f8c6125a3565b612157565b5b610fe7576040517f08c379a0000000000000000000000000000000000000000000000000000000008152600401808060200182810382526038815260200180613d776038913960400191505060405180910390fd5b610ff183836125ab565b505050565b6000601060003373ffffffffffffffffffffffffffffffffffffffff1673ffffffffffffffffffffffffffffffffffffffff1681526020019081526020016000205490506000601060003373ffffffffffffffffffffffffffffffffffffffff1673ffffffffffffffffffffffffffffffffffffffff1681526020019081526020016000208190555060003373ffffffffffffffffffffffffffffffffffffffff168260405180600001905060006040518083038185875af1925050503d80600081146110df576040519150601f19603f3d011682016040523d82523d6000602084013e6110e4565b606091505b50509050806110f257600080fd5b5050565b60006111026002612664565b905090565b61110f6125a3565b73ffffffffffffffffffffffffffffffffffffffff16600b60009054906101000a900473ffffffffffffffffffffffffffffffffffffffff1673ffffffffffffffffffffffffffffffffffffffff16146111d1576040517f08c379a00000000000000000000000000000000000000000000000000000000081526004018080602001828103825260208152602001807f4f776e61626c653a2063616c6c6572206973206e6f7420746865206f776e657281525060200191505060405180910390fd5b6111f6604051806060016040528060268152602001613d0160269139600d5483612679565b80600d8190555050565b61121161120b6125a3565b82612789565b611266576040517f08c379a0000000000000000000000000000000000000000000000000000000008152600401808060200182810382526031815260200180613f1f6031913960400191505060405180910390fd5b61127183838361287d565b505050565b60006112c982600160008673ffffffffffffffffffffffffffffffffffffffff1673ffffffffffffffffffffffffffffffffffffffff168152602001908152602001600020612ac090919063ffffffff16565b905092915050565b600a60009054906101000a900473ffffffffffffffffffffffffffffffffffffffff1673ffffffffffffffffffffffffffffffffffffffff166351cff8d9826040518263ffffffff1660e01b8152600401808273ffffffffffffffffffffffffffffffffffffffff168152602001915050600060405180830381600087803b15801561135c57600080fd5b505af1158015611370573d6000803e3d6000fd5b5050505050565b6000611383600c612ada565b600061138f600c612af0565b905061139b8482612afe565b6113a58184612b1c565b8091505092915050565b6113ca83838360405180602001604052806000815250611b00565b505050565b6000806113e6836002612ba690919063ffffffff16565b50905080915050919050565b6113fa6125a3565b73ffffffffffffffffffffffffffffffffffffffff16600b60009054906101000a900473ffffffffffffffffffffffffffffffffffffffff1673ffffffffffffffffffffffffffffffffffffffff16146114bc576040517f08c379a00000000000000000000000000000000000000000000000000000000081526004018080602001828103825260208152602001807f4f776e61626c653a2063616c6c6572206973206e6f7420746865206f776e657281525060200191505060405180910390fd5b6115016040518060600160405280602a8152602001613e02602a9139600f60009054906101000a900473ffffffffffffffffffffffffffffffffffffffff1683612bd2565b80600f60006101000a81548173ffffffffffffffffffffffffffffffffffffffff021916908373ffffffffffffffffffffffffffffffffffffffff16021790555050565b600061157582604051806060016040528060298152602001613dd9602991396002612d0e9092919063ffffffff16565b9050919050565b606060098054600181600116156101000203166002900480601f0160208091040260200160405190810160405280929190818152602001828054600181600116156101000203166002900480156116145780601f106115e957610100808354040283529160200191611614565b820191906000526020600020905b8154815290600101906020018083116115f757829003601f168201915b5050505050905090565b60008073ffffffffffffffffffffffffffffffffffffffff168273ffffffffffffffffffffffffffffffffffffffff1614156116a5576040517f08c379a000000000000000000000000000000000000000000000000000000000815260040180806020018281038252602a815260200180613daf602a913960400191505060405180910390fd5b6116ec600160008473ffffffffffffffffffffffffffffffffffffffff1673ffffffffffffffffffffffffffffffffffffffff168152602001908152602001600020612d2d565b9050919050565b6116fb6125a3565b73ffffffffffffffffffffffffffffffffffffffff16600b60009054906101000a900473ffffffffffffffffffffffffffffffffffffffff1673ffffffffffffffffffffffffffffffffffffffff16146117bd576040517f08c379a00000000000000000000000000000000000000000000000000000000081526004018080602001828103825260208152602001807f4f776e61626c653a2063616c6c6572206973206e6f7420746865206f776e657281525060200191505060405180910390fd5b600073ffffffffffffffffffffffffffffffffffffffff16600b60009054906101000a900473ffffffffffffffffffffffffffffffffffffffff1673ffffffffffffffffffffffffffffffffffffffff167f8be0079c531659141344cd1fd0a4f28419497f9722a3daafe3b4186f6b6457e060405160405180910390a36000600b60006101000a81548173ffffffffffffffffffffffffffffffffffffffff021916908373ffffffffffffffffffffffffffffffffffffffff160217905550565b6000600b60009054906101000a900473ffffffffffffffffffffffffffffffffffffffff16905090565b606060078054600181600116156101000203166002900480601f0160208091040260200160405190810160405280929190818152602001828054600181600116156101000203166002900480156119405780601f1061191557610100808354040283529160200191611940565b820191906000526020600020905b81548152906001019060200180831161192357829003601f168201915b5050505050905090565b6119526125a3565b73ffffffffffffffffffffffffffffffffffffffff168273ffffffffffffffffffffffffffffffffffffffff1614156119f3576040517f08c379a00000000000000000000000000000000000000000000000000000000081526004018080602001828103825260198152602001807f4552433732313a20617070726f766520746f2063616c6c65720000000000000081525060200191505060405180910390fd5b8060056000611a006125a3565b73ffffffffffffffffffffffffffffffffffffffff1673ffffffffffffffffffffffffffffffffffffffff16815260200190815260200160002060008473ffffffffffffffffffffffffffffffffffffffff1673ffffffffffffffffffffffffffffffffffffffff16815260200190815260200160002060006101000a81548160ff0219169083151502179055508173ffffffffffffffffffffffffffffffffffffffff16611aad6125a3565b73ffffffffffffffffffffffffffffffffffffffff167f17307eab39ab6107e8899845ad3d59bd9653f200f220920489ca2b5937696c318360405180821515815260200191505060405180910390a35050565b611b11611b0b6125a3565b83612789565b611b66576040517f08c379a0000000000000000000000000000000000000000000000000000000008152600401808060200182810382526031815260200180613f1f6031913960400191505060405180910390fd5b611b7284848484612d42565b50505050565b6060611b8382612586565b611bd8576040517f08c379a000000000000000000000000000000000000000000000000000000000815260040180806020018281038252602f815260200180613ecf602f913960400191505060405180910390fd5b6060600860008481526020019081526020016000208054600181600116156101000203166002900480601f016020809104026020016040519081016040528092919081815260200182805460018160011615610100020316600290048015611c815780601f10611c5657610100808354040283529160200191611c81565b820191906000526020600020905b815481529060010190602001808311611c6457829003601f168201915b50505050509050600060098054600181600116156101000203166002900490501415611cb05780915050611e5c565b600081511115611d89576009816040516020018083805460018160011615610100020316600290048015611d1b5780601f10611cf9576101008083540402835291820191611d1b565b820191906000526020600020905b815481529060010190602001808311611d07575b505082805190602001908083835b60208310611d4c5780518252602082019150602081019050602083039250611d29565b6001836020036101000a03801982511681845116808217855250505050505090500192505050604051602081830303815290604052915050611e5c565b6009611d9484612db4565b6040516020018083805460018160011615610100020316600290048015611df25780601f10611dd0576101008083540402835291820191611df2565b820191906000526020600020905b815481529060010190602001808311611dde575b505082805190602001908083835b60208310611e235780518252602082019150602081019050602083039250611e00565b6001836020036101000a038019825116818451168082178552505050505050905001925050506040516020818303038152906040529150505b919050565b600d54341015611ed9576040517f08c379a00000000000000000000000000000000000000000000000000000000081526004018080602001828103825260188152602001807f496e73756666696369656e74204d696e69746e6720666565000000000000000081525060200191505060405180910390fd5b600d54601060003373ffffffffffffffffffffffffffffffffffffffff1673ffffffffffffffffffffffffffffffffffffffff168152602001908152602001600020541115611f745734600d5403601060003373ffffffffffffffffffffffffffffffffffffffff1673ffffffffffffffffffffffffffffffffffffffff168152602001908152602001600020600082825401925050819055505b600d54600e60008282540192505081905550565b6000600a60009054906101000a900473ffffffffffffffffffffffffffffffffffffffff1673ffffffffffffffffffffffffffffffffffffffff1663e3a9db1a836040518263ffffffff1660e01b8152600401808273ffffffffffffffffffffffffffffffffffffffff16815260200191505060206040518083038186803b15801561201357600080fd5b505afa158015612027573d6000803e3d6000fd5b505050506040513d602081101561203d57600080fd5b81019080805190602001909291905050509050919050565b600f60009054906101000a900473ffffffffffffffffffffffffffffffffffffffff1673ffffffffffffffffffffffffffffffffffffffff163373ffffffffffffffffffffffffffffffffffffffff161415612119576040517f08c379a00000000000000000000000000000000000000000000000000000000081526004018080602001828103825260168152602001807f596f7520617265206e6f7420617574686f72697a65640000000000000000000081525060200191505060405180910390fd5b6000600e5490506000600e81905550612154600f60009054906101000a900473ffffffffffffffffffffffffffffffffffffffff1682612efb565b50565b6000600560008473ffffffffffffffffffffffffffffffffffffffff1673ffffffffffffffffffffffffffffffffffffffff16815260200190815260200160002060008373ffffffffffffffffffffffffffffffffffffffff1673ffffffffffffffffffffffffffffffffffffffff16815260200190815260200160002060009054906101000a900460ff16905092915050565b6121f36125a3565b73ffffffffffffffffffffffffffffffffffffffff16600b60009054906101000a900473ffffffffffffffffffffffffffffffffffffffff1673ffffffffffffffffffffffffffffffffffffffff16146122b5576040517f08c379a00000000000000000000000000000000000000000000000000000000081526004018080602001828103825260208152602001807f4f776e61626c653a2063616c6c6572206973206e6f7420746865206f776e657281525060200191505060405180910390fd5b600073ffffffffffffffffffffffffffffffffffffffff168173ffffffffffffffffffffffffffffffffffffffff16141561233b576040517f08c379a0000000000000000000000000000000000000000000000000000000008152600401808060200182810382526026815260200180613cdb6026913960400191505060405180910390fd5b8073ffffffffffffffffffffffffffffffffffffffff16600b60009054906101000a900473ffffffffffffffffffffffffffffffffffffffff1673ffffffffffffffffffffffffffffffffffffffff167f8be0079c531659141344cd1fd0a4f28419497f9722a3daafe3b4186f6b6457e060405160405180910390a380600b60006101000a81548173ffffffffffffffffffffffffffffffffffffffff021916908373ffffffffffffffffffffffffffffffffffffffff16021790555050565b6125818383836040516024018080602001806020018473ffffffffffffffffffffffffffffffffffffffff168152602001838103835286818151815260200191508051906020019080838360005b83811015612464578082015181840152602081019050612449565b50505050905090810190601f1680156124915780820380516001836020036101000a031916815260200191505b50838103825285818151815260200191508051906020019080838360005b838110156124ca5780820151818401526020810190506124af565b50505050905090810190601f1680156124f75780820380516001836020036101000a031916815260200191505b50955050505050506040516020818303038152906040527f95ed0195000000000000000000000000000000000000000000000000000000007bffffffffffffffffffffffffffffffffffffffffffffffffffffffff19166020820180517bffffffffffffffffffffffffffffffffffffffffffffffffffffffff8381831617835250505050612fa3565b505050565b600061259c826002612fcc90919063ffffffff16565b9050919050565b600033905090565b816004600083815260200190815260200160002060006101000a81548173ffffffffffffffffffffffffffffffffffffffff021916908373ffffffffffffffffffffffffffffffffffffffff160217905550808273ffffffffffffffffffffffffffffffffffffffff1661261e83611545565b73ffffffffffffffffffffffffffffffffffffffff167f8c5be1e5ebec7d5bd14f71427d1e84f3dd0314c0f7b2291e5b200ac8c7c3b92560405160405180910390a45050565b600061267282600001612fe6565b9050919050565b6127848383836040516024018080602001848152602001838152602001828103825285818151815260200191508051906020019080838360005b838110156126ce5780820151818401526020810190506126b3565b50505050905090810190601f1680156126fb5780820380516001836020036101000a031916815260200191505b509450505050506040516020818303038152906040527f969cdd03000000000000000000000000000000000000000000000000000000007bffffffffffffffffffffffffffffffffffffffffffffffffffffffff19166020820180517bffffffffffffffffffffffffffffffffffffffffffffffffffffffff8381831617835250505050612fa3565b505050565b600061279482612586565b6127e9576040517f08c379a000000000000000000000000000000000000000000000000000000000815260040180806020018281038252602c815260200180613d4b602c913960400191505060405180910390fd5b60006127f483611545565b90508073ffffffffffffffffffffffffffffffffffffffff168473ffffffffffffffffffffffffffffffffffffffff16148061286357508373ffffffffffffffffffffffffffffffffffffffff1661284b84610e17565b73ffffffffffffffffffffffffffffffffffffffff16145b8061287457506128738185612157565b5b91505092915050565b8273ffffffffffffffffffffffffffffffffffffffff1661289d82611545565b73ffffffffffffffffffffffffffffffffffffffff1614612909576040517f08c379a0000000000000000000000000000000000000000000000000000000008152600401808060200182810382526029815260200180613ea66029913960400191505060405180910390fd5b600073ffffffffffffffffffffffffffffffffffffffff168273ffffffffffffffffffffffffffffffffffffffff16141561298f576040517f08c379a0000000000000000000000000000000000000000000000000000000008152600401808060200182810382526024815260200180613d276024913960400191505060405180910390fd5b61299a838383612ff7565b6129a56000826125ab565b6129f681600160008673ffffffffffffffffffffffffffffffffffffffff1673ffffffffffffffffffffffffffffffffffffffff168152602001908152602001600020612ffc90919063ffffffff16565b50612a4881600160008573ffffffffffffffffffffffffffffffffffffffff1673ffffffffffffffffffffffffffffffffffffffff16815260200190815260200160002061301690919063ffffffff16565b50612a5f818360026130309092919063ffffffff16565b50808273ffffffffffffffffffffffffffffffffffffffff168473ffffffffffffffffffffffffffffffffffffffff167fddf252ad1be2c89b69c2b068fc378daa952ba7f163c4a11628f55a4df523b3ef60405160405180910390a4505050565b6000612acf8360000183613065565b60001c905092915050565b6001816000016000828254019250508190555050565b600081600001549050919050565b612b188282604051806020016040528060008152506130e8565b5050565b612b2582612586565b612b7a576040517f08c379a000000000000000000000000000000000000000000000000000000000815260040180806020018281038252602c815260200180613e7a602c913960400191505060405180910390fd5b80600860008481526020019081526020016000209080519060200190612ba1929190613be9565b505050565b600080600080612bb98660000186613159565b915091508160001c8160001c9350935050509250929050565b612d0983838360405160240180806020018473ffffffffffffffffffffffffffffffffffffffff1681526020018373ffffffffffffffffffffffffffffffffffffffff168152602001828103825285818151815260200191508051906020019080838360005b83811015612c53578082015181840152602081019050612c38565b50505050905090810190601f168015612c805780820380516001836020036101000a031916815260200191505b509450505050506040516020818303038152906040527ffcec75e0000000000000000000000000000000000000000000000000000000007bffffffffffffffffffffffffffffffffffffffffffffffffffffffff19166020820180517bffffffffffffffffffffffffffffffffffffffffffffffffffffffff8381831617835250505050612fa3565b505050565b6000612d21846000018460001b846131f2565b60001c90509392505050565b6000612d3b826000016132e8565b9050919050565b612d4d84848461287d565b612d59848484846132f9565b612dae576040517f08c379a0000000000000000000000000000000000000000000000000000000008152600401808060200182810382526032815260200180613ca96032913960400191505060405180910390fd5b50505050565b60606000821415612dfc576040518060400160405280600181526020017f30000000000000000000000000000000000000000000000000000000000000008152509050612ef6565b600082905060005b60008214612e26578080600101915050600a8281612e1e57fe5b049150612e04565b60608167ffffffffffffffff81118015612e3f57600080fd5b506040519080825280601f01601f191660200182016040528015612e725781602001600182028036833780820191505090505b50905060006001830390508593505b60008414612eee57600a8481612e9357fe5b0660300160f81b82828060019003935081518110612ead57fe5b60200101907effffffffffffffffffffffffffffffffffffffffffffffffffffffffffffff1916908160001a905350600a8481612ee657fe5b049350612e81565b819450505050505b919050565b600a60009054906101000a900473ffffffffffffffffffffffffffffffffffffffff1673ffffffffffffffffffffffffffffffffffffffff1663f340fa0182846040518363ffffffff1660e01b8152600401808273ffffffffffffffffffffffffffffffffffffffff1681526020019150506000604051808303818588803b158015612f8657600080fd5b505af1158015612f9a573d6000803e3d6000fd5b50505050505050565b60008151905060006a636f6e736f6c652e6c6f679050602083016000808483855afa5050505050565b6000612fde836000018360001b613512565b905092915050565b600081600001805490509050919050565b505050565b600061300e836000018360001b613535565b905092915050565b6000613028836000018360001b61361d565b905092915050565b600061305c846000018460001b8473ffffffffffffffffffffffffffffffffffffffff1660001b61368d565b90509392505050565b6000818360000180549050116130c6576040517f08c379a0000000000000000000000000000000000000000000000000000000008152600401808060200182810382526022815260200180613c876022913960400191505060405180910390fd5b8260000182815481106130d557fe5b9060005260206000200154905092915050565b6130f28383613769565b6130ff60008484846132f9565b613154576040517f08c379a0000000000000000000000000000000000000000000000000000000008152600401808060200182810382526032815260200180613ca96032913960400191505060405180910390fd5b505050565b600080828460000180549050116131bb576040517f08c379a0000000000000000000000000000000000000000000000000000000008152600401808060200182810382526022815260200180613e2c6022913960400191505060405180910390fd5b60008460000184815481106131cc57fe5b906000526020600020906002020190508060000154816001015492509250509250929050565b600080846001016000858152602001908152602001600020549050600081141583906132b9576040517f08c379a00000000000000000000000000000000000000000000000000000000081526004018080602001828103825283818151815260200191508051906020019080838360005b8381101561327e578082015181840152602081019050613263565b50505050905090810190601f1680156132ab5780820380516001836020036101000a031916815260200191505b509250505060405180910390fd5b508460000160018203815481106132cc57fe5b9060005260206000209060020201600101549150509392505050565b600081600001805490509050919050565b600061331a8473ffffffffffffffffffffffffffffffffffffffff1661395d565b613327576001905061350a565b606061349163150b7a0260e01b61333c6125a3565b888787604051602401808573ffffffffffffffffffffffffffffffffffffffff1681526020018473ffffffffffffffffffffffffffffffffffffffff16815260200183815260200180602001828103825283818151815260200191508051906020019080838360005b838110156133c05780820151818401526020810190506133a5565b50505050905090810190601f1680156133ed5780820380516001836020036101000a031916815260200191505b5095505050505050604051602081830303815290604052907bffffffffffffffffffffffffffffffffffffffffffffffffffffffff19166020820180517bffffffffffffffffffffffffffffffffffffffffffffffffffffffff8381831617835250505050604051806060016040528060328152602001613ca9603291398773ffffffffffffffffffffffffffffffffffffffff166139a89092919063ffffffff16565b905060008180602001905160208110156134aa57600080fd5b8101908080519060200190929190505050905063150b7a0260e01b7bffffffffffffffffffffffffffffffffffffffffffffffffffffffff1916817bffffffffffffffffffffffffffffffffffffffffffffffffffffffff191614925050505b949350505050565b600080836001016000848152602001908152602001600020541415905092915050565b60008083600101600084815260200190815260200160002054905060008114613611576000600182039050600060018660000180549050039050600086600001828154811061358057fe5b906000526020600020015490508087600001848154811061359d57fe5b90600052602060002001819055506001830187600101600083815260200190815260200160002081905550866000018054806135d557fe5b60019003818190600052602060002001600090559055866001016000878152602001908152602001600020600090556001945050505050613617565b60009150505b92915050565b600061362983836139c0565b613682578260000182908060018154018082558091505060019003906000526020600020016000909190919091505582600001805490508360010160008481526020019081526020016000208190555060019050613687565b600090505b92915050565b600080846001016000858152602001908152602001600020549050600081141561373457846000016040518060400160405280868152602001858152509080600181540180825580915050600190039060005260206000209060020201600090919091909150600082015181600001556020820151816001015550508460000180549050856001016000868152602001908152602001600020819055506001915050613762565b8285600001600183038154811061374757fe5b90600052602060002090600202016001018190555060009150505b9392505050565b600073ffffffffffffffffffffffffffffffffffffffff168273ffffffffffffffffffffffffffffffffffffffff16141561380c576040517f08c379a00000000000000000000000000000000000000000000000000000000081526004018080602001828103825260208152602001807f4552433732313a206d696e7420746f20746865207a65726f206164647265737381525060200191505060405180910390fd5b61381581612586565b15613888576040517f08c379a000000000000000000000000000000000000000000000000000000000815260040180806020018281038252601c8152602001807f4552433732313a20746f6b656e20616c7265616479206d696e7465640000000081525060200191505060405180910390fd5b61389460008383612ff7565b6138e581600160008573ffffffffffffffffffffffffffffffffffffffff1673ffffffffffffffffffffffffffffffffffffffff16815260200190815260200160002061301690919063ffffffff16565b506138fc818360026130309092919063ffffffff16565b50808273ffffffffffffffffffffffffffffffffffffffff16600073ffffffffffffffffffffffffffffffffffffffff167fddf252ad1be2c89b69c2b068fc378daa952ba7f163c4a11628f55a4df523b3ef60405160405180910390a45050565b60008060007fc5d2460186f7233c927e7db2dcc703c0e500b653ca82273b7bfad8045d85a47060001b9050833f915080821415801561399f57506000801b8214155b92505050919050565b60606139b784846000856139e3565b90509392505050565b600080836001016000848152602001908152602001600020541415905092915050565b60606139ee8561395d565b613a60576040517f08c379a000000000000000000000000000000000000000000000000000000000815260040180806020018281038252601d8152602001807f416464726573733a2063616c6c20746f206e6f6e2d636f6e747261637400000081525060200191505060405180910390fd5b600060608673ffffffffffffffffffffffffffffffffffffffff1685876040518082805190602001908083835b60208310613ab05780518252602082019150602081019050602083039250613a8d565b6001836020036101000a03801982511681845116808217855250505050505090500191505060006040518083038185875af1925050503d8060008114613b12576040519150601f19603f3d011682016040523d82523d6000602084013e613b17565b606091505b50915091508115613b2c578092505050613be1565b600081511115613b3f5780518082602001fd5b836040517f08c379a00000000000000000000000000000000000000000000000000000000081526004018080602001828103825283818151815260200191508051906020019080838360005b83811015613ba6578082015181840152602081019050613b8b565b50505050905090810190601f168015613bd35780820380516001836020036101000a031916815260200191505b509250505060405180910390fd5b949350505050565b828054600181600116156101000203166002900490600052602060002090601f016020900481019282601f10613c2a57805160ff1916838001178555613c58565b82800160010185558215613c58579182015b82811115613c57578251825591602001919060010190613c3c565b5b509050613c659190613c69565b5090565b5b80821115613c82576000816000905550600101613c6a565b509056fe456e756d657261626c655365743a20696e646578206f7574206f6620626f756e64734552433732313a207472616e7366657220746f206e6f6e20455243373231526563656976657220696d706c656d656e7465724f776e61626c653a206e6577206f776e657220697320746865207a65726f20616464726573734368616e67696e67206d696e74696e67206665652066726f6d202725732720746f20272573274552433732313a207472616e7366657220746f20746865207a65726f20616464726573734552433732313a206f70657261746f7220717565727920666f72206e6f6e6578697374656e7420746f6b656e4552433732313a20617070726f76652063616c6c6572206973206e6f74206f776e6572206e6f7220617070726f76656420666f7220616c6c4552433732313a2062616c616e636520717565727920666f7220746865207a65726f20616464726573734552433732313a206f776e657220717565727920666f72206e6f6e6578697374656e7420746f6b656e4368616e67696e67207061796d656e7420616464726573732066726f6d202725732720746f2027257327456e756d657261626c654d61703a20696e646578206f7574206f6620626f756e64734552433732313a20617070726f76656420717565727920666f72206e6f6e6578697374656e7420746f6b656e4552433732314d657461646174613a2055524920736574206f66206e6f6e6578697374656e7420746f6b656e4552433732313a207472616e73666572206f6620746f6b656e2074686174206973206e6f74206f776e4552433732314d657461646174613a2055524920717565727920666f72206e6f6e6578697374656e7420746f6b656e4552433732313a20617070726f76616c20746f2063757272656e74206f776e65724552433732313a207472616e736665722063616c6c6572206973206e6f74206f776e6572206e6f7220617070726f766564a2646970667358221220f56e81907022d6cb6e7457ba2fe304e1d28c350b79c258f2f0e025565b37d30664736f6c63430007030033608060405234801561001057600080fd5b5060006100216100c460201b60201c565b9050806000806101000a81548173ffffffffffffffffffffffffffffffffffffffff021916908373ffffffffffffffffffffffffffffffffffffffff1602179055508073ffffffffffffffffffffffffffffffffffffffff16600073ffffffffffffffffffffffffffffffffffffffff167f8be0079c531659141344cd1fd0a4f28419497f9722a3daafe3b4186f6b6457e060405160405180910390a3506100cc565b600033905090565b610be0806100db6000396000f3fe6080604052600436106100555760003560e01c806351cff8d91461005a578063715018a6146100ab5780638da5cb5b146100c2578063e3a9db1a14610103578063f2fde38b14610168578063f340fa01146101b9575b600080fd5b34801561006657600080fd5b506100a96004803603602081101561007d57600080fd5b81019080803573ffffffffffffffffffffffffffffffffffffffff1690602001909291905050506101fd565b005b3480156100b757600080fd5b506100c06103c9565b005b3480156100ce57600080fd5b506100d761054f565b604051808273ffffffffffffffffffffffffffffffffffffffff16815260200191505060405180910390f35b34801561010f57600080fd5b506101526004803603602081101561012657600080fd5b81019080803573ffffffffffffffffffffffffffffffffffffffff169060200190929190505050610578565b6040518082815260200191505060405180910390f35b34801561017457600080fd5b506101b76004803603602081101561018b57600080fd5b81019080803573ffffffffffffffffffffffffffffffffffffffff1690602001909291905050506105c1565b005b6101fb600480360360208110156101cf57600080fd5b81019080803573ffffffffffffffffffffffffffffffffffffffff1690602001909291905050506107cc565b005b610205610980565b73ffffffffffffffffffffffffffffffffffffffff1660008054906101000a900473ffffffffffffffffffffffffffffffffffffffff1673ffffffffffffffffffffffffffffffffffffffff16146102c5576040517f08c379a00000000000000000000000000000000000000000000000000000000081526004018080602001828103825260208152602001807f4f776e61626c653a2063616c6c6572206973206e6f7420746865206f776e657281525060200191505060405180910390fd5b6000600160008373ffffffffffffffffffffffffffffffffffffffff1673ffffffffffffffffffffffffffffffffffffffff1681526020019081526020016000205490506000600160008473ffffffffffffffffffffffffffffffffffffffff1673ffffffffffffffffffffffffffffffffffffffff16815260200190815260200160002081905550610377818373ffffffffffffffffffffffffffffffffffffffff1661098890919063ffffffff16565b8173ffffffffffffffffffffffffffffffffffffffff167f7084f5476618d8e60b11ef0d7d3f06914655adb8793e28ff7f018d4c76d505d5826040518082815260200191505060405180910390a25050565b6103d1610980565b73ffffffffffffffffffffffffffffffffffffffff1660008054906101000a900473ffffffffffffffffffffffffffffffffffffffff1673ffffffffffffffffffffffffffffffffffffffff1614610491576040517f08c379a00000000000000000000000000000000000000000000000000000000081526004018080602001828103825260208152602001807f4f776e61626c653a2063616c6c6572206973206e6f7420746865206f776e657281525060200191505060405180910390fd5b600073ffffffffffffffffffffffffffffffffffffffff1660008054906101000a900473ffffffffffffffffffffffffffffffffffffffff1673ffffffffffffffffffffffffffffffffffffffff167f8be0079c531659141344cd1fd0a4f28419497f9722a3daafe3b4186f6b6457e060405160405180910390a360008060006101000a81548173ffffffffffffffffffffffffffffffffffffffff021916908373ffffffffffffffffffffffffffffffffffffffff160217905550565b60008060009054906101000a900473ffffffffffffffffffffffffffffffffffffffff16905090565b6000600160008373ffffffffffffffffffffffffffffffffffffffff1673ffffffffffffffffffffffffffffffffffffffff168152602001908152602001600020549050919050565b6105c9610980565b73ffffffffffffffffffffffffffffffffffffffff1660008054906101000a900473ffffffffffffffffffffffffffffffffffffffff1673ffffffffffffffffffffffffffffffffffffffff1614610689576040517f08c379a00000000000000000000000000000000000000000000000000000000081526004018080602001828103825260208152602001807f4f776e61626c653a2063616c6c6572206973206e6f7420746865206f776e657281525060200191505060405180910390fd5b600073ffffffffffffffffffffffffffffffffffffffff168173ffffffffffffffffffffffffffffffffffffffff16141561070f576040517f08c379a0000000000000000000000000000000000000000000000000000000008152600401808060200182810382526026815260200180610b4b6026913960400191505060405180910390fd5b8073ffffffffffffffffffffffffffffffffffffffff1660008054906101000a900473ffffffffffffffffffffffffffffffffffffffff1673ffffffffffffffffffffffffffffffffffffffff167f8be0079c531659141344cd1fd0a4f28419497f9722a3daafe3b4186f6b6457e060405160405180910390a3806000806101000a81548173ffffffffffffffffffffffffffffffffffffffff021916908373ffffffffffffffffffffffffffffffffffffffff16021790555050565b6107d4610980565b73ffffffffffffffffffffffffffffffffffffffff1660008054906101000a900473ffffffffffffffffffffffffffffffffffffffff1673ffffffffffffffffffffffffffffffffffffffff1614610894576040517f08c379a00000000000000000000000000000000000000000000000000000000081526004018080602001828103825260208152602001807f4f776e61626c653a2063616c6c6572206973206e6f7420746865206f776e657281525060200191505060405180910390fd5b60003490506108eb81600160008573ffffffffffffffffffffffffffffffffffffffff1673ffffffffffffffffffffffffffffffffffffffff16815260200190815260200160002054610ac290919063ffffffff16565b600160008473ffffffffffffffffffffffffffffffffffffffff1673ffffffffffffffffffffffffffffffffffffffff168152602001908152602001600020819055508173ffffffffffffffffffffffffffffffffffffffff167f2da466a7b24304f47e87fa2e1e5a81b9831ce54fec19055ce277ca2f39ba42c4826040518082815260200191505060405180910390a25050565b600033905090565b804710156109fe576040517f08c379a000000000000000000000000000000000000000000000000000000000815260040180806020018281038252601d8152602001807f416464726573733a20696e73756666696369656e742062616c616e636500000081525060200191505060405180910390fd5b60008273ffffffffffffffffffffffffffffffffffffffff168260405180600001905060006040518083038185875af1925050503d8060008114610a5e576040519150601f19603f3d011682016040523d82523d6000602084013e610a63565b606091505b5050905080610abd576040517f08c379a000000000000000000000000000000000000000000000000000000000815260040180806020018281038252603a815260200180610b71603a913960400191505060405180910390fd5b505050565b600080828401905083811015610b40576040517f08c379a000000000000000000000000000000000000000000000000000000000815260040180806020018281038252601b8152602001807f536166654d6174683a206164646974696f6e206f766572666c6f77000000000081525060200191505060405180910390fd5b809150509291505056fe4f776e61626c653a206e6577206f776e657220697320746865207a65726f2061646472657373416464726573733a20756e61626c6520746f2073656e642076616c75652c20726563697069656e74206d61792068617665207265766572746564a26469706673582212204ebfd268d9b7fa7dcaf636ca99d8758feb924c595a2005bde061df0f578e2bc264736f6c634300070300334465706c6f79696e672025732077697468207061796d656e742041646472657373202573",
  "linkReferences": {},
  "deployedLinkReferences": {}
}